{
  "contractName": "MedicalSupplyChain",
  "abi": [
    {
      "inputs": [],
      "stateMutability": "nonpayable",
      "type": "constructor"
    },
    {
      "anonymous": false,
      "inputs": [
        {
          "indexed": false,
          "internalType": "uint256",
          "name": "id",
          "type": "uint256"
        },
        {
          "indexed": false,
          "internalType": "string",
          "name": "name",
          "type": "string"
        },
        {
          "indexed": false,
          "internalType": "address",
          "name": "buyerAddress",
          "type": "address"
        }
      ],
      "name": "BuyerRegistered",
      "type": "event"
    },
    {
      "anonymous": false,
      "inputs": [
        {
          "indexed": false,
          "internalType": "uint256",
          "name": "id",
          "type": "uint256"
        },
        {
          "indexed": false,
          "internalType": "string",
          "name": "name",
          "type": "string"
        },
        {
          "indexed": false,
          "internalType": "address",
          "name": "manufacturerAddress",
          "type": "address"
        }
      ],
      "name": "ManufacturerRegistered",
      "type": "event"
    },
    {
      "anonymous": false,
      "inputs": [
        {
          "indexed": false,
          "internalType": "uint256",
          "name": "id",
          "type": "uint256"
        },
        {
          "indexed": false,
          "internalType": "string",
          "name": "name",
          "type": "string"
        },
        {
          "indexed": false,
          "internalType": "uint256",
          "name": "manufactureDate",
          "type": "uint256"
        },
        {
          "indexed": false,
          "internalType": "uint256",
          "name": "expiryDate",
          "type": "uint256"
        },
        {
          "indexed": false,
          "internalType": "address",
          "name": "manufacturerAddress",
          "type": "address"
        }
      ],
      "name": "ProductCreated",
      "type": "event"
    },
    {
      "anonymous": false,
      "inputs": [
        {
          "indexed": false,
          "internalType": "uint256",
          "name": "id",
          "type": "uint256"
        },
        {
          "indexed": false,
          "internalType": "uint256",
          "name": "price",
          "type": "uint256"
        }
      ],
      "name": "ProductListedForSale",
      "type": "event"
    },
    {
      "anonymous": false,
      "inputs": [
        {
          "indexed": false,
          "internalType": "uint256",
          "name": "id",
          "type": "uint256"
        },
        {
          "indexed": false,
          "internalType": "address",
          "name": "buyer",
          "type": "address"
        }
      ],
      "name": "ProductPurchased",
      "type": "event"
    },
    {
      "anonymous": false,
      "inputs": [
        {
          "indexed": false,
          "internalType": "uint256",
          "name": "id",
          "type": "uint256"
        },
        {
          "indexed": false,
          "internalType": "string",
          "name": "name",
          "type": "string"
        },
        {
          "indexed": false,
          "internalType": "address",
          "name": "sellerAddress",
          "type": "address"
        }
      ],
      "name": "SellerRegistered",
      "type": "event"
    },
    {
      "anonymous": false,
      "inputs": [
        {
          "indexed": false,
          "internalType": "uint256",
          "name": "id",
          "type": "uint256"
        },
        {
          "indexed": false,
          "internalType": "uint256",
          "name": "productId",
          "type": "uint256"
        },
        {
          "indexed": false,
          "internalType": "address",
          "name": "sender",
          "type": "address"
        },
        {
          "indexed": false,
          "internalType": "address",
          "name": "buyer",
          "type": "address"
        },
        {
          "indexed": false,
          "internalType": "uint256",
          "name": "shipmentDate",
          "type": "uint256"
        }
      ],
      "name": "ShipmentCreated",
      "type": "event"
    },
    {
      "anonymous": false,
      "inputs": [
        {
          "indexed": false,
          "internalType": "uint256",
          "name": "id",
          "type": "uint256"
        },
        {
          "indexed": false,
          "internalType": "uint256",
          "name": "receiveDate",
          "type": "uint256"
        }
      ],
      "name": "ShipmentReceived",
      "type": "event"
    },
    {
      "anonymous": false,
      "inputs": [
        {
          "indexed": false,
          "internalType": "uint256",
          "name": "shipmentId",
          "type": "uint256"
        },
        {
          "indexed": false,
          "internalType": "string",
          "name": "location",
          "type": "string"
        },
        {
          "indexed": false,
          "internalType": "uint256",
          "name": "temperature",
          "type": "uint256"
        },
        {
          "indexed": false,
          "internalType": "uint256",
          "name": "humidity",
          "type": "uint256"
        },
        {
          "indexed": false,
          "internalType": "uint256",
          "name": "timestamp",
          "type": "uint256"
        }
      ],
      "name": "ShipmentStatusUpdated",
      "type": "event"
    },
    {
      "inputs": [],
      "name": "buyerCount",
      "outputs": [
        {
          "internalType": "uint256",
          "name": "",
          "type": "uint256"
        }
      ],
      "stateMutability": "view",
      "type": "function",
      "constant": true
    },
    {
      "inputs": [
        {
          "internalType": "address",
          "name": "",
          "type": "address"
        }
      ],
      "name": "buyerUsernames",
      "outputs": [
        {
          "internalType": "string",
          "name": "",
          "type": "string"
        }
      ],
      "stateMutability": "view",
      "type": "function",
      "constant": true
    },
    {
      "inputs": [
        {
          "internalType": "uint256",
          "name": "",
          "type": "uint256"
        }
      ],
      "name": "buyers",
      "outputs": [
        {
          "internalType": "uint256",
          "name": "id",
          "type": "uint256"
        },
        {
          "internalType": "string",
          "name": "name",
          "type": "string"
        },
        {
          "internalType": "address",
          "name": "buyerAddress",
          "type": "address"
        }
      ],
      "stateMutability": "view",
      "type": "function",
      "constant": true
    },
    {
      "inputs": [],
      "name": "manufacturerCount",
      "outputs": [
        {
          "internalType": "uint256",
          "name": "",
          "type": "uint256"
        }
      ],
      "stateMutability": "view",
      "type": "function",
      "constant": true
    },
    {
      "inputs": [
        {
          "internalType": "address",
          "name": "",
          "type": "address"
        }
      ],
      "name": "manufacturerUsernames",
      "outputs": [
        {
          "internalType": "string",
          "name": "",
          "type": "string"
        }
      ],
      "stateMutability": "view",
      "type": "function",
      "constant": true
    },
    {
      "inputs": [
        {
          "internalType": "uint256",
          "name": "",
          "type": "uint256"
        }
      ],
      "name": "manufacturers",
      "outputs": [
        {
          "internalType": "uint256",
          "name": "id",
          "type": "uint256"
        },
        {
          "internalType": "string",
          "name": "name",
          "type": "string"
        },
        {
          "internalType": "address",
          "name": "manufacturerAddress",
          "type": "address"
        }
      ],
      "stateMutability": "view",
      "type": "function",
      "constant": true
    },
    {
      "inputs": [],
      "name": "owner",
      "outputs": [
        {
          "internalType": "address",
          "name": "",
          "type": "address"
        }
      ],
      "stateMutability": "view",
      "type": "function",
      "constant": true
    },
    {
      "inputs": [],
      "name": "productCount",
      "outputs": [
        {
          "internalType": "uint256",
          "name": "",
          "type": "uint256"
        }
      ],
      "stateMutability": "view",
      "type": "function",
      "constant": true
    },
    {
      "inputs": [
        {
          "internalType": "uint256",
          "name": "",
          "type": "uint256"
        }
      ],
      "name": "products",
      "outputs": [
        {
          "internalType": "uint256",
          "name": "id",
          "type": "uint256"
        },
        {
          "internalType": "string",
          "name": "name",
          "type": "string"
        },
        {
          "internalType": "uint256",
          "name": "manufactureDate",
          "type": "uint256"
        },
        {
          "internalType": "uint256",
          "name": "expiryDate",
          "type": "uint256"
        },
        {
          "internalType": "address",
          "name": "manufacturerAddress",
          "type": "address"
        },
        {
          "internalType": "uint256",
          "name": "price",
          "type": "uint256"
        },
        {
          "internalType": "bool",
          "name": "forSale",
          "type": "bool"
        },
        {
          "internalType": "address",
          "name": "buyer",
          "type": "address"
        }
      ],
      "stateMutability": "view",
      "type": "function",
      "constant": true
    },
    {
      "inputs": [
        {
          "internalType": "address",
          "name": "",
          "type": "address"
        }
      ],
      "name": "registeredBuyers",
      "outputs": [
        {
          "internalType": "bool",
          "name": "",
          "type": "bool"
        }
      ],
      "stateMutability": "view",
      "type": "function",
      "constant": true
    },
    {
      "inputs": [
        {
          "internalType": "address",
          "name": "",
          "type": "address"
        }
      ],
      "name": "registeredManufacturers",
      "outputs": [
        {
          "internalType": "bool",
          "name": "",
          "type": "bool"
        }
      ],
      "stateMutability": "view",
      "type": "function",
      "constant": true
    },
    {
      "inputs": [],
      "name": "sellerCount",
      "outputs": [
        {
          "internalType": "uint256",
          "name": "",
          "type": "uint256"
        }
      ],
      "stateMutability": "view",
      "type": "function",
      "constant": true
    },
    {
      "inputs": [
        {
          "internalType": "uint256",
          "name": "",
          "type": "uint256"
        }
      ],
      "name": "sellers",
      "outputs": [
        {
          "internalType": "uint256",
          "name": "id",
          "type": "uint256"
        },
        {
          "internalType": "string",
          "name": "name",
          "type": "string"
        },
        {
          "internalType": "address",
          "name": "sellerAddress",
          "type": "address"
        }
      ],
      "stateMutability": "view",
      "type": "function",
      "constant": true
    },
    {
      "inputs": [],
      "name": "shipmentCount",
      "outputs": [
        {
          "internalType": "uint256",
          "name": "",
          "type": "uint256"
        }
      ],
      "stateMutability": "view",
      "type": "function",
      "constant": true
    },
    {
      "inputs": [
        {
          "internalType": "uint256",
          "name": "",
          "type": "uint256"
        }
      ],
      "name": "shipments",
      "outputs": [
        {
          "internalType": "uint256",
          "name": "id",
          "type": "uint256"
        },
        {
          "internalType": "uint256",
          "name": "productId",
          "type": "uint256"
        },
        {
          "internalType": "string",
          "name": "productName",
          "type": "string"
        },
        {
          "internalType": "string",
          "name": "manufacturerUsername",
          "type": "string"
        },
        {
          "internalType": "address",
          "name": "sender",
          "type": "address"
        },
        {
          "internalType": "uint256",
          "name": "shipmentDate",
          "type": "uint256"
        },
        {
          "internalType": "bool",
          "name": "received",
          "type": "bool"
        },
        {
          "internalType": "address",
          "name": "buyer",
          "type": "address"
        }
      ],
      "stateMutability": "view",
      "type": "function",
      "constant": true
    },
    {
      "inputs": [
        {
          "internalType": "address",
          "name": "_manufacturerAddress",
          "type": "address"
        },
        {
          "internalType": "string",
          "name": "_username",
          "type": "string"
        }
      ],
      "name": "registerManufacturer",
      "outputs": [],
      "stateMutability": "nonpayable",
      "type": "function"
    },
    {
      "inputs": [
        {
          "internalType": "address",
          "name": "_buyerAddress",
          "type": "address"
        },
        {
          "internalType": "string",
          "name": "_username",
          "type": "string"
        }
      ],
      "name": "registerBuyer",
      "outputs": [],
      "stateMutability": "nonpayable",
      "type": "function"
    },
    {
      "inputs": [
        {
          "internalType": "string",
          "name": "_name",
          "type": "string"
        },
        {
          "internalType": "address",
          "name": "_sellerAddress",
          "type": "address"
        }
      ],
      "name": "registerSeller",
      "outputs": [],
      "stateMutability": "nonpayable",
      "type": "function"
    },
    {
      "inputs": [
        {
          "internalType": "string",
          "name": "_name",
          "type": "string"
        },
        {
          "internalType": "uint256",
          "name": "_manufactureDate",
          "type": "uint256"
        },
        {
          "internalType": "uint256",
          "name": "_expiryDate",
          "type": "uint256"
        },
        {
          "internalType": "uint256",
          "name": "_price",
          "type": "uint256"
        }
      ],
      "name": "createProduct",
      "outputs": [],
      "stateMutability": "nonpayable",
      "type": "function"
    },
    {
      "inputs": [
        {
          "internalType": "uint256",
          "name": "_productId",
          "type": "uint256"
        },
        {
          "internalType": "uint256",
          "name": "_price",
          "type": "uint256"
        }
      ],
      "name": "listProductForSale",
      "outputs": [],
      "stateMutability": "nonpayable",
      "type": "function"
    },
    {
      "inputs": [
        {
          "internalType": "uint256",
          "name": "_productId",
          "type": "uint256"
        }
      ],
      "name": "purchaseProduct",
      "outputs": [],
      "stateMutability": "payable",
      "type": "function",
      "payable": true
    },
    {
      "inputs": [
        {
          "internalType": "uint256",
          "name": "_productId",
          "type": "uint256"
        },
        {
          "internalType": "address",
          "name": "_buyer",
          "type": "address"
        },
        {
          "internalType": "string",
          "name": "_initialLocation",
          "type": "string"
        },
        {
          "internalType": "uint256",
          "name": "_initialTemperature",
          "type": "uint256"
        },
        {
          "internalType": "uint256",
          "name": "_initialHumidity",
          "type": "uint256"
        }
      ],
      "name": "createShipment",
      "outputs": [],
      "stateMutability": "nonpayable",
      "type": "function"
    },
    {
      "inputs": [
        {
          "internalType": "address",
          "name": "_manufacturerAddress",
          "type": "address"
        }
      ],
      "name": "getManufacturerUsername",
      "outputs": [
        {
          "internalType": "string",
          "name": "",
          "type": "string"
        }
      ],
      "stateMutability": "view",
      "type": "function",
      "constant": true
    },
    {
      "inputs": [
        {
          "internalType": "address",
          "name": "_buyerAddress",
          "type": "address"
        }
      ],
      "name": "getBuyerUsername",
      "outputs": [
        {
          "internalType": "string",
          "name": "",
          "type": "string"
        }
      ],
      "stateMutability": "view",
      "type": "function",
      "constant": true
    },
    {
      "inputs": [
        {
          "internalType": "uint256",
          "name": "_shipmentId",
          "type": "uint256"
        },
        {
          "internalType": "string",
          "name": "_location",
          "type": "string"
        },
        {
          "internalType": "uint256",
          "name": "_temperature",
          "type": "uint256"
        },
        {
          "internalType": "uint256",
          "name": "_humidity",
          "type": "uint256"
        }
      ],
      "name": "updateShipmentStatus",
      "outputs": [],
      "stateMutability": "nonpayable",
      "type": "function"
    },
    {
      "inputs": [
        {
          "internalType": "uint256",
          "name": "_shipmentId",
          "type": "uint256"
        }
      ],
      "name": "receiveShipment",
      "outputs": [],
      "stateMutability": "nonpayable",
      "type": "function"
    },
    {
      "inputs": [
        {
          "internalType": "uint256",
          "name": "_shipmentId",
          "type": "uint256"
        },
        {
          "internalType": "uint256",
          "name": "_temperature",
          "type": "uint256"
        },
        {
          "internalType": "uint256",
          "name": "_humidity",
          "type": "uint256"
        }
      ],
      "name": "logEnvironmentalData",
      "outputs": [],
      "stateMutability": "nonpayable",
      "type": "function"
    },
    {
      "inputs": [
        {
          "internalType": "address",
          "name": "_buyerAddress",
          "type": "address"
        }
      ],
      "name": "getShipmentsByBuyer",
      "outputs": [
        {
          "components": [
            {
              "internalType": "uint256",
              "name": "id",
              "type": "uint256"
            },
            {
              "internalType": "uint256",
              "name": "productId",
              "type": "uint256"
            },
            {
              "internalType": "string",
              "name": "productName",
              "type": "string"
            },
            {
              "internalType": "string",
              "name": "manufacturerUsername",
              "type": "string"
            },
            {
              "internalType": "address",
              "name": "sender",
              "type": "address"
            },
            {
              "internalType": "uint256",
              "name": "shipmentDate",
              "type": "uint256"
            },
            {
              "internalType": "bool",
              "name": "received",
              "type": "bool"
            },
            {
              "components": [
                {
                  "internalType": "string",
                  "name": "location",
                  "type": "string"
                },
                {
                  "internalType": "uint256",
                  "name": "temperature",
                  "type": "uint256"
                },
                {
                  "internalType": "uint256",
                  "name": "humidity",
                  "type": "uint256"
                },
                {
                  "internalType": "uint256",
                  "name": "timestamp",
                  "type": "uint256"
                }
              ],
              "internalType": "struct MedicalSupplyChain.StatusUpdate[]",
              "name": "statusUpdates",
              "type": "tuple[]"
            },
            {
              "internalType": "address",
              "name": "buyer",
              "type": "address"
            }
          ],
          "internalType": "struct MedicalSupplyChain.Shipment[]",
          "name": "",
          "type": "tuple[]"
        }
      ],
      "stateMutability": "view",
      "type": "function",
      "constant": true
    },
    {
      "inputs": [
        {
          "internalType": "address",
          "name": "_address",
          "type": "address"
        }
      ],
      "name": "isManufacturer",
      "outputs": [
        {
          "internalType": "bool",
          "name": "",
          "type": "bool"
        }
      ],
      "stateMutability": "view",
      "type": "function",
      "constant": true
    },
    {
      "inputs": [
        {
          "internalType": "address",
          "name": "_address",
          "type": "address"
        }
      ],
      "name": "isBuyer",
      "outputs": [
        {
          "internalType": "bool",
          "name": "",
          "type": "bool"
        }
      ],
      "stateMutability": "view",
      "type": "function",
      "constant": true
    },
    {
      "inputs": [
        {
          "internalType": "address",
          "name": "_address",
          "type": "address"
        }
      ],
      "name": "isSeller",
      "outputs": [
        {
          "internalType": "bool",
          "name": "",
          "type": "bool"
        }
      ],
      "stateMutability": "view",
      "type": "function",
      "constant": true
    },
    {
      "inputs": [
        {
          "internalType": "uint256",
          "name": "_shipmentId",
          "type": "uint256"
        }
      ],
      "name": "getShipmentStatusUpdates",
      "outputs": [
        {
          "components": [
            {
              "internalType": "string",
              "name": "location",
              "type": "string"
            },
            {
              "internalType": "uint256",
              "name": "temperature",
              "type": "uint256"
            },
            {
              "internalType": "uint256",
              "name": "humidity",
              "type": "uint256"
            },
            {
              "internalType": "uint256",
              "name": "timestamp",
              "type": "uint256"
            }
          ],
          "internalType": "struct MedicalSupplyChain.StatusUpdate[]",
          "name": "",
          "type": "tuple[]"
        }
      ],
      "stateMutability": "view",
      "type": "function",
      "constant": true
    },
    {
      "inputs": [],
      "name": "getAllSellers",
      "outputs": [
        {
          "components": [
            {
              "internalType": "uint256",
              "name": "id",
              "type": "uint256"
            },
            {
              "internalType": "string",
              "name": "name",
              "type": "string"
            },
            {
              "internalType": "address",
              "name": "sellerAddress",
              "type": "address"
            }
          ],
          "internalType": "struct MedicalSupplyChain.Seller[]",
          "name": "",
          "type": "tuple[]"
        }
      ],
      "stateMutability": "view",
      "type": "function",
      "constant": true
    },
    {
      "inputs": [],
      "name": "getAllBuyers",
      "outputs": [
        {
          "components": [
            {
              "internalType": "uint256",
              "name": "id",
              "type": "uint256"
            },
            {
              "internalType": "string",
              "name": "name",
              "type": "string"
            },
            {
              "internalType": "address",
              "name": "buyerAddress",
              "type": "address"
            }
          ],
          "internalType": "struct MedicalSupplyChain.Buyer[]",
          "name": "",
          "type": "tuple[]"
        }
      ],
      "stateMutability": "view",
      "type": "function",
      "constant": true
    },
    {
      "inputs": [],
      "name": "getAllProducts",
      "outputs": [
        {
          "components": [
            {
              "internalType": "uint256",
              "name": "id",
              "type": "uint256"
            },
            {
              "internalType": "string",
              "name": "name",
              "type": "string"
            },
            {
              "internalType": "uint256",
              "name": "manufactureDate",
              "type": "uint256"
            },
            {
              "internalType": "uint256",
              "name": "expiryDate",
              "type": "uint256"
            },
            {
              "internalType": "address",
              "name": "manufacturerAddress",
              "type": "address"
            },
            {
              "internalType": "uint256",
              "name": "price",
              "type": "uint256"
            },
            {
              "internalType": "bool",
              "name": "forSale",
              "type": "bool"
            },
            {
              "internalType": "address",
              "name": "buyer",
              "type": "address"
            }
          ],
          "internalType": "struct MedicalSupplyChain.Product[]",
          "name": "",
          "type": "tuple[]"
        }
      ],
      "stateMutability": "view",
      "type": "function",
      "constant": true
    },
    {
      "inputs": [],
      "name": "getAllShipments",
      "outputs": [
        {
          "components": [
            {
              "internalType": "uint256",
              "name": "id",
              "type": "uint256"
            },
            {
              "internalType": "uint256",
              "name": "productId",
              "type": "uint256"
            },
            {
              "internalType": "string",
              "name": "productName",
              "type": "string"
            },
            {
              "internalType": "string",
              "name": "manufacturerUsername",
              "type": "string"
            },
            {
              "internalType": "address",
              "name": "sender",
              "type": "address"
            },
            {
              "internalType": "uint256",
              "name": "shipmentDate",
              "type": "uint256"
            },
            {
              "internalType": "bool",
              "name": "received",
              "type": "bool"
            },
            {
              "components": [
                {
                  "internalType": "string",
                  "name": "location",
                  "type": "string"
                },
                {
                  "internalType": "uint256",
                  "name": "temperature",
                  "type": "uint256"
                },
                {
                  "internalType": "uint256",
                  "name": "humidity",
                  "type": "uint256"
                },
                {
                  "internalType": "uint256",
                  "name": "timestamp",
                  "type": "uint256"
                }
              ],
              "internalType": "struct MedicalSupplyChain.StatusUpdate[]",
              "name": "statusUpdates",
              "type": "tuple[]"
            },
            {
              "internalType": "address",
              "name": "buyer",
              "type": "address"
            }
          ],
          "internalType": "struct MedicalSupplyChain.Shipment[]",
          "name": "",
          "type": "tuple[]"
        }
      ],
      "stateMutability": "view",
      "type": "function",
      "constant": true
    }
  ],
  "bytecode": "0x608060405234801561001057600080fd5b50336000806101000a81548173ffffffffffffffffffffffffffffffffffffffff021916908373ffffffffffffffffffffffffffffffffffffffff160217905550615372806100606000396000f3fe60806040526004361061020f5760003560e01c80638da5cb5b11610118578063b17fd27b116100a0578063cee26ed51161006f578063cee26ed514610824578063e0f6ef8714610863578063ee95feaf1461088e578063f2aa8218146108cb578063f9747bda1461090a5761020f565b8063b17fd27b14610756578063b276a1a21461077f578063be0c6f1c146107bc578063bfd1dfdb146107e75761020f565b80639e0cea05116100e75780639e0cea05146106715780639e4e66341461069c578063aa7e41c5146106c5578063aace20b714610702578063ad00b39c1461072d5761020f565b80638da5cb5b1461059f57806390175af1146105ca57806392fc0f89146106095780639b269b8f146106465761020f565b80633c0b276c1161019b57806365b1e75a1161016a57806365b1e75a146104a157806374c1ef06146104ca5780637acc0b20146104f35780637cc368811461053757806386cba22b146105745761020f565b80633c0b276c146103e5578063494dad6c1461040e578063495ca82a1461043957806359fa9b1f146104765761020f565b8063298ec3f2116101e2578063298ec3f2146102e25780632a55feec1461031f5780632ac08a931461035c57806338e76a03146103a05780633ba87843146103bc5761020f565b806302ee3a52146102145780630351a67c1461023f57806317d4a4911461027c57806319470078146102b9575b600080fd5b34801561022057600080fd5b50610229610933565b60405161023691906149ff565b60405180910390f35b34801561024b57600080fd5b5061026660048036038101906102619190613bfa565b610bd0565b6040516102739190614a87565b60405180910390f35b34801561028857600080fd5b506102a3600480360381019061029e9190613bfa565b610bf0565b6040516102b09190614a87565b60405180910390f35b3480156102c557600080fd5b506102e060048036038101906102db9190613c23565b610c93565b005b3480156102ee57600080fd5b5061030960048036038101906103049190613bfa565b610f79565b6040516103169190614aa2565b60405180910390f35b34801561032b57600080fd5b5061034660048036038101906103419190613bfa565b61104a565b6040516103539190614a87565b60405180910390f35b34801561036857600080fd5b50610383600480360381019061037e9190613d46565b6110ed565b604051610397989796959493929190614eef565b60405180910390f35b6103ba60048036038101906103b59190613d46565b611292565b005b3480156103c857600080fd5b506103e360048036038101906103de9190613d6f565b611448565b005b3480156103f157600080fd5b5061040c60048036038101906104079190613d46565b611702565b005b34801561041a57600080fd5b50610423611811565b6040516104309190614a43565b60405180910390f35b34801561044557600080fd5b50610460600480360381019061045b9190613bfa565b611c45565b60405161046d9190614aa2565b60405180910390f35b34801561048257600080fd5b5061048b611ce5565b6040516104989190614c24565b60405180910390f35b3480156104ad57600080fd5b506104c860048036038101906104c39190613c77565b611ceb565b005b3480156104d657600080fd5b506104f160048036038101906104ec9190613eb5565b611e8b565b005b3480156104ff57600080fd5b5061051a60048036038101906105159190613d46565b612091565b60405161052e989796959493929190614d00565b60405180910390f35b34801561054357600080fd5b5061055e60048036038101906105599190613d46565b6121ae565b60405161056b9190614a65565b60405180910390f35b34801561058057600080fd5b506105896122d3565b60405161059691906149dd565b60405180910390f35b3480156105ab57600080fd5b506105b46124e0565b6040516105c191906149c2565b60405180910390f35b3480156105d657600080fd5b506105f160048036038101906105ec9190613d46565b612504565b60405161060093929190614c68565b60405180910390f35b34801561061557600080fd5b50610630600480360381019061062b9190613bfa565b6125d6565b60405161063d9190614aa2565b60405180910390f35b34801561065257600080fd5b5061065b612676565b6040516106689190614a21565b60405180910390f35b34801561067d57600080fd5b50610686612883565b6040516106939190614c24565b60405180910390f35b3480156106a857600080fd5b506106c360048036038101906106be9190613c23565b612889565b005b3480156106d157600080fd5b506106ec60048036038101906106e79190613bfa565b612b6f565b6040516106f99190614a87565b60405180910390f35b34801561070e57600080fd5b50610717612b8f565b6040516107249190614c24565b60405180910390f35b34801561073957600080fd5b50610754600480360381019061074f9190613dfe565b612b95565b005b34801561076257600080fd5b5061077d60048036038101906107789190613e79565b612d69565b005b34801561078b57600080fd5b506107a660048036038101906107a19190613bfa565b612e86565b6040516107b39190614a43565b60405180910390f35b3480156107c857600080fd5b506107d1613418565b6040516107de9190614c24565b60405180910390f35b3480156107f357600080fd5b5061080e60048036038101906108099190613bfa565b61341e565b60405161081b9190614aa2565b60405180910390f35b34801561083057600080fd5b5061084b60048036038101906108469190613d46565b6134ef565b60405161085a93929190614c68565b60405180910390f35b34801561086f57600080fd5b506108786135c1565b6040516108859190614c24565b60405180910390f35b34801561089a57600080fd5b506108b560048036038101906108b09190613bfa565b6135c7565b6040516108c29190614a87565b60405180910390f35b3480156108d757600080fd5b506108f260048036038101906108ed9190613d46565b61366a565b60405161090193929190614c68565b60405180910390f35b34801561091657600080fd5b50610931600480360381019061092c9190613ccb565b61373c565b005b6060600060025467ffffffffffffffff811115610979577f4e487b7100000000000000000000000000000000000000000000000000000000600052604160045260246000fd5b6040519080825280602002602001820160405280156109b257816020015b61099f61396a565b8152602001906001900390816109975790505b5090506000600190505b6002548111610bc8576009600082815260200190815260200160002060405180610100016040529081600082015481526020016001820180546109fe906151f5565b80601f0160208091040260200160405190810160405280929190818152602001828054610a2a906151f5565b8015610a775780601f10610a4c57610100808354040283529160200191610a77565b820191906000526020600020905b815481529060010190602001808311610a5a57829003601f168201915b5050505050815260200160028201548152602001600382015481526020016004820160009054906101000a900473ffffffffffffffffffffffffffffffffffffffff1673ffffffffffffffffffffffffffffffffffffffff1673ffffffffffffffffffffffffffffffffffffffff168152602001600582015481526020016006820160009054906101000a900460ff161515151581526020016006820160019054906101000a900473ffffffffffffffffffffffffffffffffffffffff1673ffffffffffffffffffffffffffffffffffffffff1673ffffffffffffffffffffffffffffffffffffffff168152505082600183610b739190615137565b81518110610baa577f4e487b7100000000000000000000000000000000000000000000000000000000600052603260045260246000fd5b60200260200101819052508080610bc090615227565b9150506109bc565b508091505090565b600e6020528060005260406000206000915054906101000a900460ff1681565b600080600190505b6001548111610c88578273ffffffffffffffffffffffffffffffffffffffff166006600083815260200190815260200160002060020160009054906101000a900473ffffffffffffffffffffffffffffffffffffffff1673ffffffffffffffffffffffffffffffffffffffff161415610c75576001915050610c8e565b8080610c8090615227565b915050610bf8565b50600090505b919050565b60008054906101000a900473ffffffffffffffffffffffffffffffffffffffff1673ffffffffffffffffffffffffffffffffffffffff163373ffffffffffffffffffffffffffffffffffffffff1614610d21576040517f08c379a0000000000000000000000000000000000000000000000000000000008152600401610d1890614bc4565b60405180910390fd5b600e60008373ffffffffffffffffffffffffffffffffffffffff1673ffffffffffffffffffffffffffffffffffffffff16815260200190815260200160002060009054906101000a900460ff1615610dae576040517f08c379a0000000000000000000000000000000000000000000000000000000008152600401610da590614b64565b60405180910390fd5b6001600e60008473ffffffffffffffffffffffffffffffffffffffff1673ffffffffffffffffffffffffffffffffffffffff16815260200190815260200160002060006101000a81548160ff02191690831515021790555060046000815480929190610e1990615227565b9190505550604051806060016040528060045481526020016040518060200160405280600081525081526020018373ffffffffffffffffffffffffffffffffffffffff16815250600760006004548152602001908152602001600020600082015181600001556020820151816001019080519060200190610e9b9291906139dd565b5060408201518160020160006101000a81548173ffffffffffffffffffffffffffffffffffffffff021916908373ffffffffffffffffffffffffffffffffffffffff16021790555090505080600c60008473ffffffffffffffffffffffffffffffffffffffff1673ffffffffffffffffffffffffffffffffffffffff1681526020019081526020016000209080519060200190610f399291906139dd565b507fdc69cdc4d65150108511a0726389353db2cc822e833b4bb897eacf005cd7930860045483604051610f6d929190614ddf565b60405180910390a15050565b6060600c60008373ffffffffffffffffffffffffffffffffffffffff1673ffffffffffffffffffffffffffffffffffffffff1681526020019081526020016000208054610fc5906151f5565b80601f0160208091040260200160405190810160405280929190818152602001828054610ff1906151f5565b801561103e5780601f106110135761010080835404028352916020019161103e565b820191906000526020600020905b81548152906001019060200180831161102157829003601f168201915b50505050509050919050565b600080600190505b60045481116110e2578273ffffffffffffffffffffffffffffffffffffffff166007600083815260200190815260200160002060020160009054906101000a900473ffffffffffffffffffffffffffffffffffffffff1673ffffffffffffffffffffffffffffffffffffffff1614156110cf5760019150506110e8565b80806110da90615227565b915050611052565b50600090505b919050565b600a60205280600052604060002060009150905080600001549080600101549080600201805461111c906151f5565b80601f0160208091040260200160405190810160405280929190818152602001828054611148906151f5565b80156111955780601f1061116a57610100808354040283529160200191611195565b820191906000526020600020905b81548152906001019060200180831161117857829003601f168201915b5050505050908060030180546111aa906151f5565b80601f01602080910402602001604051908101604052809291908181526020018280546111d6906151f5565b80156112235780601f106111f857610100808354040283529160200191611223565b820191906000526020600020905b81548152906001019060200180831161120657829003601f168201915b5050505050908060040160009054906101000a900473ffffffffffffffffffffffffffffffffffffffff16908060050154908060060160009054906101000a900460ff16908060080160009054906101000a900473ffffffffffffffffffffffffffffffffffffffff16905088565b60006009600083815260200190815260200160002090508060060160009054906101000a900460ff166112fa576040517f08c379a00000000000000000000000000000000000000000000000000000000081526004016112f190614b04565b60405180910390fd5b80600501543414611340576040517f08c379a000000000000000000000000000000000000000000000000000000000815260040161133790614ae4565b60405180910390fd5b60008160060160006101000a81548160ff021916908315150217905550338160060160016101000a81548173ffffffffffffffffffffffffffffffffffffffff021916908373ffffffffffffffffffffffffffffffffffffffff1602179055508060040160009054906101000a900473ffffffffffffffffffffffffffffffffffffffff1673ffffffffffffffffffffffffffffffffffffffff166108fc349081150290604051600060405180830381858888f1935050505015801561140a573d6000803e3d6000fd5b507f9ad4ecfaf27ea0cbeebee0ed92fe15c8a84975f1e3d45ccfc526d7751dcf98ff823360405161143c929190614c3f565b60405180910390a15050565b3373ffffffffffffffffffffffffffffffffffffffff166009600087815260200190815260200160002060040160009054906101000a900473ffffffffffffffffffffffffffffffffffffffff1673ffffffffffffffffffffffffffffffffffffffff1614806114bd57506114bc336135c7565b5b6114fc576040517f08c379a00000000000000000000000000000000000000000000000000000000081526004016114f390614b44565b60405180910390fd5b6003600081548092919061150f90615227565b91905055506000600a6000600354815260200190815260200160002090506003548160000181905550858160010181905550338160040160006101000a81548173ffffffffffffffffffffffffffffffffffffffff021916908373ffffffffffffffffffffffffffffffffffffffff160217905550848160080160006101000a81548173ffffffffffffffffffffffffffffffffffffffff021916908373ffffffffffffffffffffffffffffffffffffffff16021790555042816005018190555060008160060160006101000a81548160ff02191690831515021790555080600701604051806080016040528086815260200185815260200184815260200142815250908060018154018082558091505060019003906000526020600020906004020160009091909190915060008201518160000190805190602001906116579291906139dd565b5060208201518160010155604082015181600201556060820151816003015550507f069ee88fbf8f0d63b6857526eb60b995fb8ec25207ab3ae372c213ee96213c7c600354873388426040516116b1959493929190614e9c565b60405180910390a17f49c6d81eb6c7bc9cb3d2c5136e5fb1aa3bf85a34682acd0044ca86f6d19db867600354858585426040516116f2959493929190614d85565b60405180910390a1505050505050565b3373ffffffffffffffffffffffffffffffffffffffff16600a600083815260200190815260200160002060080160009054906101000a900473ffffffffffffffffffffffffffffffffffffffff1673ffffffffffffffffffffffffffffffffffffffff16146117a6576040517f08c379a000000000000000000000000000000000000000000000000000000000815260040161179d90614be4565b60405180910390fd5b6001600a600083815260200190815260200160002060060160006101000a81548160ff0219169083151502179055507f4c10d4363a8513910091b545a702a14864e656a760374024aefeb79bd6854a448142604051611806929190614e73565b60405180910390a150565b6060600060035467ffffffffffffffff811115611857577f4e487b7100000000000000000000000000000000000000000000000000000000600052604160045260246000fd5b60405190808252806020026020018201604052801561189057816020015b61187d613a63565b8152602001906001900390816118755790505b5090506000600190505b6003548111611c3d57600a60008281526020019081526020016000206040518061012001604052908160008201548152602001600182015481526020016002820180546118e6906151f5565b80601f0160208091040260200160405190810160405280929190818152602001828054611912906151f5565b801561195f5780601f106119345761010080835404028352916020019161195f565b820191906000526020600020905b81548152906001019060200180831161194257829003601f168201915b50505050508152602001600382018054611978906151f5565b80601f01602080910402602001604051908101604052809291908181526020018280546119a4906151f5565b80156119f15780601f106119c6576101008083540402835291602001916119f1565b820191906000526020600020905b8154815290600101906020018083116119d457829003601f168201915b505050505081526020016004820160009054906101000a900473ffffffffffffffffffffffffffffffffffffffff1673ffffffffffffffffffffffffffffffffffffffff1673ffffffffffffffffffffffffffffffffffffffff168152602001600582015481526020016006820160009054906101000a900460ff1615151515815260200160078201805480602002602001604051908101604052809291908181526020016000905b82821015611b7c5783829060005260206000209060040201604051806080016040529081600082018054611acd906151f5565b80601f0160208091040260200160405190810160405280929190818152602001828054611af9906151f5565b8015611b465780601f10611b1b57610100808354040283529160200191611b46565b820191906000526020600020905b815481529060010190602001808311611b2957829003601f168201915b50505050508152602001600182015481526020016002820154815260200160038201548152505081526020019060010190611a9a565b5050505081526020016008820160009054906101000a900473ffffffffffffffffffffffffffffffffffffffff1673ffffffffffffffffffffffffffffffffffffffff1673ffffffffffffffffffffffffffffffffffffffff168152505082600183611be89190615137565b81518110611c1f577f4e487b7100000000000000000000000000000000000000000000000000000000600052603260045260246000fd5b60200260200101819052508080611c3590615227565b91505061189a565b508091505090565b600c6020528060005260406000206000915090508054611c64906151f5565b80601f0160208091040260200160405190810160405280929190818152602001828054611c90906151f5565b8015611cdd5780601f10611cb257610100808354040283529160200191611cdd565b820191906000526020600020905b815481529060010190602001808311611cc057829003601f168201915b505050505081565b60055481565b60008054906101000a900473ffffffffffffffffffffffffffffffffffffffff1673ffffffffffffffffffffffffffffffffffffffff163373ffffffffffffffffffffffffffffffffffffffff1614611d79576040517f08c379a0000000000000000000000000000000000000000000000000000000008152600401611d7090614bc4565b60405180910390fd5b60056000815480929190611d8c90615227565b9190505550604051806060016040528060055481526020018381526020018273ffffffffffffffffffffffffffffffffffffffff16815250600860006005548152602001908152602001600020600082015181600001556020820151816001019080519060200190611dff9291906139dd565b5060408201518160020160006101000a81548173ffffffffffffffffffffffffffffffffffffffff021916908373ffffffffffffffffffffffffffffffffffffffff1602179055509050507f78405a296a07596575022ea9023a9d10f8ba0a2506c43e5c51bfe95bdc27c8286005548383604051611e7f93929190614c68565b60405180910390a15050565b6000600a600085815260200190815260200160002090503373ffffffffffffffffffffffffffffffffffffffff168160040160009054906101000a900473ffffffffffffffffffffffffffffffffffffffff1673ffffffffffffffffffffffffffffffffffffffff161480611f4f57503373ffffffffffffffffffffffffffffffffffffffff168160080160009054906101000a900473ffffffffffffffffffffffffffffffffffffffff1673ffffffffffffffffffffffffffffffffffffffff16145b611f8e576040517f08c379a0000000000000000000000000000000000000000000000000000000008152600401611f8590614c04565b60405180910390fd5b8060070160405180608001604052806040518060400160405280600a81526020017f496e207472616e736974000000000000000000000000000000000000000000008152508152602001858152602001848152602001428152509080600181540180825580915050600190039060005260206000209060040201600090919091909150600082015181600001908051906020019061202d9291906139dd565b5060208201518160010155604082015181600201556060820151816003015550507f49c6d81eb6c7bc9cb3d2c5136e5fb1aa3bf85a34682acd0044ca86f6d19db867848484426040516120839493929190614e1b565b60405180910390a150505050565b60096020528060005260406000206000915090508060000154908060010180546120ba906151f5565b80601f01602080910402602001604051908101604052809291908181526020018280546120e6906151f5565b80156121335780601f1061210857610100808354040283529160200191612133565b820191906000526020600020905b81548152906001019060200180831161211657829003601f168201915b5050505050908060020154908060030154908060040160009054906101000a900473ffffffffffffffffffffffffffffffffffffffff16908060050154908060060160009054906101000a900460ff16908060060160019054906101000a900473ffffffffffffffffffffffffffffffffffffffff16905088565b6060600a6000838152602001908152602001600020600701805480602002602001604051908101604052809291908181526020016000905b828210156122c85783829060005260206000209060040201604051806080016040529081600082018054612219906151f5565b80601f0160208091040260200160405190810160405280929190818152602001828054612245906151f5565b80156122925780601f1061226757610100808354040283529160200191612292565b820191906000526020600020905b81548152906001019060200180831161227557829003601f168201915b505050505081526020016001820154815260200160028201548152602001600382015481525050815260200190600101906121e6565b505050509050919050565b6060600060045467ffffffffffffffff811115612319577f4e487b7100000000000000000000000000000000000000000000000000000000600052604160045260246000fd5b60405190808252806020026020018201604052801561235257816020015b61233f613add565b8152602001906001900390816123375790505b5090506000600190505b60045481116124d857600760008281526020019081526020016000206040518060600160405290816000820154815260200160018201805461239d906151f5565b80601f01602080910402602001604051908101604052809291908181526020018280546123c9906151f5565b80156124165780601f106123eb57610100808354040283529160200191612416565b820191906000526020600020905b8154815290600101906020018083116123f957829003601f168201915b505050505081526020016002820160009054906101000a900473ffffffffffffffffffffffffffffffffffffffff1673ffffffffffffffffffffffffffffffffffffffff1673ffffffffffffffffffffffffffffffffffffffff1681525050826001836124839190615137565b815181106124ba577f4e487b7100000000000000000000000000000000000000000000000000000000600052603260045260246000fd5b602002602001018190525080806124d090615227565b91505061235c565b508091505090565b60008054906101000a900473ffffffffffffffffffffffffffffffffffffffff1681565b600660205280600052604060002060009150905080600001549080600101805461252d906151f5565b80601f0160208091040260200160405190810160405280929190818152602001828054612559906151f5565b80156125a65780601f1061257b576101008083540402835291602001916125a6565b820191906000526020600020905b81548152906001019060200180831161258957829003601f168201915b5050505050908060020160009054906101000a900473ffffffffffffffffffffffffffffffffffffffff16905083565b600b60205280600052604060002060009150905080546125f5906151f5565b80601f0160208091040260200160405190810160405280929190818152602001828054612621906151f5565b801561266e5780601f106126435761010080835404028352916020019161266e565b820191906000526020600020905b81548152906001019060200180831161265157829003601f168201915b505050505081565b6060600060055467ffffffffffffffff8111156126bc577f4e487b7100000000000000000000000000000000000000000000000000000000600052604160045260246000fd5b6040519080825280602002602001820160405280156126f557816020015b6126e2613b14565b8152602001906001900390816126da5790505b5090506000600190505b600554811161287b576008600082815260200190815260200160002060405180606001604052908160008201548152602001600182018054612740906151f5565b80601f016020809104026020016040519081016040528092919081815260200182805461276c906151f5565b80156127b95780601f1061278e576101008083540402835291602001916127b9565b820191906000526020600020905b81548152906001019060200180831161279c57829003601f168201915b505050505081526020016002820160009054906101000a900473ffffffffffffffffffffffffffffffffffffffff1673ffffffffffffffffffffffffffffffffffffffff1673ffffffffffffffffffffffffffffffffffffffff1681525050826001836128269190615137565b8151811061285d577f4e487b7100000000000000000000000000000000000000000000000000000000600052603260045260246000fd5b6020026020010181905250808061287390615227565b9150506126ff565b508091505090565b60045481565b60008054906101000a900473ffffffffffffffffffffffffffffffffffffffff1673ffffffffffffffffffffffffffffffffffffffff163373ffffffffffffffffffffffffffffffffffffffff1614612917576040517f08c379a000000000000000000000000000000000000000000000000000000000815260040161290e90614bc4565b60405180910390fd5b600d60008373ffffffffffffffffffffffffffffffffffffffff1673ffffffffffffffffffffffffffffffffffffffff16815260200190815260200160002060009054906101000a900460ff16156129a4576040517f08c379a000000000000000000000000000000000000000000000000000000000815260040161299b90614ac4565b60405180910390fd5b6001600d60008473ffffffffffffffffffffffffffffffffffffffff1673ffffffffffffffffffffffffffffffffffffffff16815260200190815260200160002060006101000a81548160ff02191690831515021790555060016000815480929190612a0f90615227565b9190505550604051806060016040528060015481526020016040518060200160405280600081525081526020018373ffffffffffffffffffffffffffffffffffffffff16815250600660006001548152602001908152602001600020600082015181600001556020820151816001019080519060200190612a919291906139dd565b5060408201518160020160006101000a81548173ffffffffffffffffffffffffffffffffffffffff021916908373ffffffffffffffffffffffffffffffffffffffff16021790555090505080600b60008473ffffffffffffffffffffffffffffffffffffffff1673ffffffffffffffffffffffffffffffffffffffff1681526020019081526020016000209080519060200190612b2f9291906139dd565b507f3654775d7d0ddef872e52651fe7749128a51d87e400756370d3e39dacb24795d60015483604051612b63929190614ddf565b60405180910390a15050565b600d6020528060005260406000206000915054906101000a900460ff1681565b60035481565b6000600a600086815260200190815260200160002090503373ffffffffffffffffffffffffffffffffffffffff168160040160009054906101000a900473ffffffffffffffffffffffffffffffffffffffff1673ffffffffffffffffffffffffffffffffffffffff161480612c5957503373ffffffffffffffffffffffffffffffffffffffff168160080160009054906101000a900473ffffffffffffffffffffffffffffffffffffffff1673ffffffffffffffffffffffffffffffffffffffff16145b612c98576040517f08c379a0000000000000000000000000000000000000000000000000000000008152600401612c8f90614b84565b60405180910390fd5b8060070160405180608001604052808681526020018581526020018481526020014281525090806001815401808255809150506001900390600052602060002090600402016000909190919091506000820151816000019080519060200190612d029291906139dd565b5060208201518160010155604082015181600201556060820151816003015550507f49c6d81eb6c7bc9cb3d2c5136e5fb1aa3bf85a34682acd0044ca86f6d19db8678585858542604051612d5a959493929190614d85565b60405180910390a15050505050565b60006009600084815260200190815260200160002090503373ffffffffffffffffffffffffffffffffffffffff168160040160009054906101000a900473ffffffffffffffffffffffffffffffffffffffff1673ffffffffffffffffffffffffffffffffffffffff161480612de35750612de2336135c7565b5b612e22576040517f08c379a0000000000000000000000000000000000000000000000000000000008152600401612e1990614b24565b60405180910390fd5b81816005018190555060018160060160006101000a81548160ff0219169083151502179055507f317c3a024d1e99b3a37fd7291cdb333b31eee019c3126bfa53bd7cafea8f927f8383604051612e79929190614e73565b60405180910390a1505050565b6060600080600190505b6003548111612f25578373ffffffffffffffffffffffffffffffffffffffff16600a600083815260200190815260200160002060080160009054906101000a900473ffffffffffffffffffffffffffffffffffffffff1673ffffffffffffffffffffffffffffffffffffffff161415612f12578180612f0e90615227565b9250505b8080612f1d90615227565b915050612e90565b5060008167ffffffffffffffff811115612f68577f4e487b7100000000000000000000000000000000000000000000000000000000600052604160045260246000fd5b604051908082528060200260200182016040528015612fa157816020015b612f8e613a63565b815260200190600190039081612f865790505b509050600080600190505b600354811161340c578573ffffffffffffffffffffffffffffffffffffffff16600a600083815260200190815260200160002060080160009054906101000a900473ffffffffffffffffffffffffffffffffffffffff1673ffffffffffffffffffffffffffffffffffffffff1614156133f9576000600a600083815260200190815260200160002090506000600960008360010154815260200190815260200160002090506040518061012001604052808360000154815260200183600101548152602001826001018054613080906151f5565b80601f01602080910402602001604051908101604052809291908181526020018280546130ac906151f5565b80156130f95780601f106130ce576101008083540402835291602001916130f9565b820191906000526020600020905b8154815290600101906020018083116130dc57829003601f168201915b50505050508152602001600b60008460040160009054906101000a900473ffffffffffffffffffffffffffffffffffffffff1673ffffffffffffffffffffffffffffffffffffffff1673ffffffffffffffffffffffffffffffffffffffff1681526020019081526020016000208054613171906151f5565b80601f016020809104026020016040519081016040528092919081815260200182805461319d906151f5565b80156131ea5780601f106131bf576101008083540402835291602001916131ea565b820191906000526020600020905b8154815290600101906020018083116131cd57829003601f168201915b505050505081526020018360040160009054906101000a900473ffffffffffffffffffffffffffffffffffffffff1673ffffffffffffffffffffffffffffffffffffffff168152602001836005015481526020018360060160009054906101000a900460ff161515815260200183600701805480602002602001604051908101604052809291908181526020016000905b8282101561335d57838290600052602060002090600402016040518060800160405290816000820180546132ae906151f5565b80601f01602080910402602001604051908101604052809291908181526020018280546132da906151f5565b80156133275780601f106132fc57610100808354040283529160200191613327565b820191906000526020600020905b81548152906001019060200180831161330a57829003601f168201915b5050505050815260200160018201548152602001600282015481526020016003820154815250508152602001906001019061327b565b5050505081526020018360080160009054906101000a900473ffffffffffffffffffffffffffffffffffffffff1673ffffffffffffffffffffffffffffffffffffffff168152508585815181106133dd577f4e487b7100000000000000000000000000000000000000000000000000000000600052603260045260246000fd5b602002602001018190525083806133f390615227565b94505050505b808061340490615227565b915050612fac565b50819350505050919050565b60015481565b6060600b60008373ffffffffffffffffffffffffffffffffffffffff1673ffffffffffffffffffffffffffffffffffffffff168152602001908152602001600020805461346a906151f5565b80601f0160208091040260200160405190810160405280929190818152602001828054613496906151f5565b80156134e35780601f106134b8576101008083540402835291602001916134e3565b820191906000526020600020905b8154815290600101906020018083116134c657829003601f168201915b50505050509050919050565b6008602052806000526040600020600091509050806000015490806001018054613518906151f5565b80601f0160208091040260200160405190810160405280929190818152602001828054613544906151f5565b80156135915780601f1061356657610100808354040283529160200191613591565b820191906000526020600020905b81548152906001019060200180831161357457829003601f168201915b5050505050908060020160009054906101000a900473ffffffffffffffffffffffffffffffffffffffff16905083565b60025481565b600080600190505b600554811161365f578273ffffffffffffffffffffffffffffffffffffffff166008600083815260200190815260200160002060020160009054906101000a900473ffffffffffffffffffffffffffffffffffffffff1673ffffffffffffffffffffffffffffffffffffffff16141561364c576001915050613665565b808061365790615227565b9150506135cf565b50600090505b919050565b6007602052806000526040600020600091509050806000015490806001018054613693906151f5565b80601f01602080910402602001604051908101604052809291908181526020018280546136bf906151f5565b801561370c5780601f106136e15761010080835404028352916020019161370c565b820191906000526020600020905b8154815290600101906020018083116136ef57829003601f168201915b5050505050908060020160009054906101000a900473ffffffffffffffffffffffffffffffffffffffff16905083565b61374533610bf0565b806137555750613754336135c7565b5b613794576040517f08c379a000000000000000000000000000000000000000000000000000000000815260040161378b90614ba4565b60405180910390fd5b600260008154809291906137a790615227565b919050555060405180610100016040528060025481526020018581526020018481526020018381526020013373ffffffffffffffffffffffffffffffffffffffff168152602001828152602001600015158152602001600073ffffffffffffffffffffffffffffffffffffffff168152506009600060025481526020019081526020016000206000820151816000015560208201518160010190805190602001906138539291906139dd565b50604082015181600201556060820151816003015560808201518160040160006101000a81548173ffffffffffffffffffffffffffffffffffffffff021916908373ffffffffffffffffffffffffffffffffffffffff16021790555060a0820151816005015560c08201518160060160006101000a81548160ff02191690831515021790555060e08201518160060160016101000a81548173ffffffffffffffffffffffffffffffffffffffff021916908373ffffffffffffffffffffffffffffffffffffffff1602179055509050507f75f809131c39228d740da0b686206b8ae86548c72bfdc872da71f4d4340301de6002548585853360405161395c959493929190614ca6565b60405180910390a150505050565b60405180610100016040528060008152602001606081526020016000815260200160008152602001600073ffffffffffffffffffffffffffffffffffffffff16815260200160008152602001600015158152602001600073ffffffffffffffffffffffffffffffffffffffff1681525090565b8280546139e9906151f5565b90600052602060002090601f016020900481019282613a0b5760008555613a52565b82601f10613a2457805160ff1916838001178555613a52565b82800160010185558215613a52579182015b82811115613a51578251825591602001919060010190613a36565b5b509050613a5f9190613b4b565b5090565b60405180610120016040528060008152602001600081526020016060815260200160608152602001600073ffffffffffffffffffffffffffffffffffffffff1681526020016000815260200160001515815260200160608152602001600073ffffffffffffffffffffffffffffffffffffffff1681525090565b60405180606001604052806000815260200160608152602001600073ffffffffffffffffffffffffffffffffffffffff1681525090565b60405180606001604052806000815260200160608152602001600073ffffffffffffffffffffffffffffffffffffffff1681525090565b5b80821115613b64576000816000905550600101613b4c565b5090565b6000613b7b613b7684614fac565b614f7b565b905082815260208101848484011115613b9357600080fd5b613b9e8482856151b3565b509392505050565b600081359050613bb58161530e565b92915050565b600082601f830112613bcc57600080fd5b8135613bdc848260208601613b68565b91505092915050565b600081359050613bf481615325565b92915050565b600060208284031215613c0c57600080fd5b6000613c1a84828501613ba6565b91505092915050565b60008060408385031215613c3657600080fd5b6000613c4485828601613ba6565b925050602083013567ffffffffffffffff811115613c6157600080fd5b613c6d85828601613bbb565b9150509250929050565b60008060408385031215613c8a57600080fd5b600083013567ffffffffffffffff811115613ca457600080fd5b613cb085828601613bbb565b9250506020613cc185828601613ba6565b9150509250929050565b60008060008060808587031215613ce157600080fd5b600085013567ffffffffffffffff811115613cfb57600080fd5b613d0787828801613bbb565b9450506020613d1887828801613be5565b9350506040613d2987828801613be5565b9250506060613d3a87828801613be5565b91505092959194509250565b600060208284031215613d5857600080fd5b6000613d6684828501613be5565b91505092915050565b600080600080600060a08688031215613d8757600080fd5b6000613d9588828901613be5565b9550506020613da688828901613ba6565b945050604086013567ffffffffffffffff811115613dc357600080fd5b613dcf88828901613bbb565b9350506060613de088828901613be5565b9250506080613df188828901613be5565b9150509295509295909350565b60008060008060808587031215613e1457600080fd5b6000613e2287828801613be5565b945050602085013567ffffffffffffffff811115613e3f57600080fd5b613e4b87828801613bbb565b9350506040613e5c87828801613be5565b9250506060613e6d87828801613be5565b91505092959194509250565b60008060408385031215613e8c57600080fd5b6000613e9a85828601613be5565b9250506020613eab85828601613be5565b9150509250929050565b600080600060608486031215613eca57600080fd5b6000613ed886828701613be5565b9350506020613ee986828701613be5565b9250506040613efa86828701613be5565b9150509250925092565b6000613f10838361471e565b905092915050565b6000613f24838361476e565b905092915050565b6000613f38838361481e565b905092915050565b6000613f4c838361486e565b905092915050565b6000613f608383614941565b905092915050565b613f718161516b565b82525050565b613f808161516b565b82525050565b6000613f918261502c565b613f9b81856150af565b935083602082028501613fad85614fdc565b8060005b85811015613fe95784840389528151613fca8582613f04565b9450613fd58361506e565b925060208a01995050600181019050613fb1565b50829750879550505050505092915050565b600061400682615037565b61401081856150c0565b93508360208202850161402285614fec565b8060005b8581101561405e578484038952815161403f8582613f18565b945061404a8361507b565b925060208a01995050600181019050614026565b50829750879550505050505092915050565b600061407b82615042565b61408581856150d1565b93508360208202850161409785614ffc565b8060005b858110156140d357848403895281516140b48582613f2c565b94506140bf83615088565b925060208a0199505060018101905061409b565b50829750879550505050505092915050565b60006140f08261504d565b6140fa81856150e2565b93508360208202850161410c8561500c565b8060005b8581101561414857848403895281516141298582613f40565b945061413483615095565b925060208a01995050600181019050614110565b50829750879550505050505092915050565b600061416582615058565b61416f81856150f3565b9350836020820285016141818561501c565b8060005b858110156141bd578484038952815161419e8582613f54565b94506141a9836150a2565b925060208a01995050600181019050614185565b50829750879550505050505092915050565b60006141da82615058565b6141e48185615104565b9350836020820285016141f68561501c565b8060005b8581101561423257848403895281516142138582613f54565b945061421e836150a2565b925060208a019950506001810190506141fa565b50829750879550505050505092915050565b61424d8161517d565b82525050565b61425c8161517d565b82525050565b600061426d82615063565b6142778185615115565b93506142878185602086016151c2565b614290816152fd565b840191505092915050565b60006142a682615063565b6142b08185615126565b93506142c08185602086016151c2565b6142c9816152fd565b840191505092915050565b60006142e1601f83615126565b91507f4d616e75666163747572657220616c72656164792072656769737465726564006000830152602082019050919050565b6000614321601483615126565b91507f496e636f72726563742076616c75652073656e740000000000000000000000006000830152602082019050919050565b6000614361601783615126565b91507f50726f64756374206973206e6f7420666f722073616c650000000000000000006000830152602082019050919050565b60006143a1604583615126565b91507f4f6e6c79207468652070726f64756374206d616e756661637475726572206f7260008301527f2073656c6c65722063616e206c697374207468652070726f6475637420666f7260208301527f2073616c650000000000000000000000000000000000000000000000000000006040830152606082019050919050565b600061442d600083615126565b9150600082019050919050565b6000614447603d83615126565b91507f4f6e6c79207468652070726f64756374206d616e756661637475726572206f7260008301527f2073656c6c65722063616e20637265617465206120736869706d656e740000006020830152604082019050919050565b60006144ad601883615126565b91507f427579657220616c7265616479207265676973746572656400000000000000006000830152602082019050919050565b60006144ed602f83615126565b91507f4f6e6c792073656e646572206f722062757965722063616e207570646174652060008301527f736869706d656e742073746174757300000000000000000000000000000000006020830152604082019050919050565b6000614553600a83615126565b91507f496e207472616e736974000000000000000000000000000000000000000000006000830152602082019050919050565b6000614593603c83615126565b91507f4f6e6c792072656769737465726564206d616e75666163747572657273206f7260008301527f2073656c6c6572732063616e206372656174652070726f6475637473000000006020830152604082019050919050565b60006145f9602283615126565b91507f4f6e6c79206f776e65722063616e20706572666f726d2074686973206163746960008301527f6f6e0000000000000000000000000000000000000000000000000000000000006020830152604082019050919050565b600061465f603283615126565b91507f4f6e6c79207468652064657369676e617465642062757965722063616e20726560008301527f63656976652074686520736869706d656e7400000000000000000000000000006020830152604082019050919050565b60006146c5602f83615126565b91507f4f6e6c792073656e646572206f722062757965722063616e206c6f6720656e7660008301527f69726f6e6d656e74616c206461746100000000000000000000000000000000006020830152604082019050919050565b600060608301600083015161473660008601826149a4565b506020830151848203602086015261474e8282614262565b91505060408301516147636040860182613f68565b508091505092915050565b60006101008301600083015161478760008601826149a4565b506020830151848203602086015261479f8282614262565b91505060408301516147b460408601826149a4565b5060608301516147c760608601826149a4565b5060808301516147da6080860182613f68565b5060a08301516147ed60a08601826149a4565b5060c083015161480060c0860182614244565b5060e083015161481360e0860182613f68565b508091505092915050565b600060608301600083015161483660008601826149a4565b506020830151848203602086015261484e8282614262565b91505060408301516148636040860182613f68565b508091505092915050565b60006101208301600083015161488760008601826149a4565b50602083015161489a60208601826149a4565b50604083015184820360408601526148b28282614262565b915050606083015184820360608601526148cc8282614262565b91505060808301516148e16080860182613f68565b5060a08301516148f460a08601826149a4565b5060c083015161490760c0860182614244565b5060e083015184820360e086015261491f828261415a565b915050610100830151614936610100860182613f68565b508091505092915050565b6000608083016000830151848203600086015261495e8282614262565b915050602083015161497360208601826149a4565b50604083015161498660408601826149a4565b50606083015161499960608601826149a4565b508091505092915050565b6149ad816151a9565b82525050565b6149bc816151a9565b82525050565b60006020820190506149d76000830184613f77565b92915050565b600060208201905081810360008301526149f78184613f86565b905092915050565b60006020820190508181036000830152614a198184613ffb565b905092915050565b60006020820190508181036000830152614a3b8184614070565b905092915050565b60006020820190508181036000830152614a5d81846140e5565b905092915050565b60006020820190508181036000830152614a7f81846141cf565b905092915050565b6000602082019050614a9c6000830184614253565b92915050565b60006020820190508181036000830152614abc818461429b565b905092915050565b60006020820190508181036000830152614add816142d4565b9050919050565b60006020820190508181036000830152614afd81614314565b9050919050565b60006020820190508181036000830152614b1d81614354565b9050919050565b60006020820190508181036000830152614b3d81614394565b9050919050565b60006020820190508181036000830152614b5d8161443a565b9050919050565b60006020820190508181036000830152614b7d816144a0565b9050919050565b60006020820190508181036000830152614b9d816144e0565b9050919050565b60006020820190508181036000830152614bbd81614586565b9050919050565b60006020820190508181036000830152614bdd816145ec565b9050919050565b60006020820190508181036000830152614bfd81614652565b9050919050565b60006020820190508181036000830152614c1d816146b8565b9050919050565b6000602082019050614c3960008301846149b3565b92915050565b6000604082019050614c5460008301856149b3565b614c616020830184613f77565b9392505050565b6000606082019050614c7d60008301866149b3565b8181036020830152614c8f818561429b565b9050614c9e6040830184613f77565b949350505050565b600060a082019050614cbb60008301886149b3565b8181036020830152614ccd818761429b565b9050614cdc60408301866149b3565b614ce960608301856149b3565b614cf66080830184613f77565b9695505050505050565b600061010082019050614d16600083018b6149b3565b8181036020830152614d28818a61429b565b9050614d3760408301896149b3565b614d4460608301886149b3565b614d516080830187613f77565b614d5e60a08301866149b3565b614d6b60c0830185614253565b614d7860e0830184613f77565b9998505050505050505050565b600060a082019050614d9a60008301886149b3565b8181036020830152614dac818761429b565b9050614dbb60408301866149b3565b614dc860608301856149b3565b614dd560808301846149b3565b9695505050505050565b6000606082019050614df460008301856149b3565b8181036020830152614e0581614420565b9050614e146040830184613f77565b9392505050565b600060a082019050614e3060008301876149b3565b8181036020830152614e4181614546565b9050614e5060408301866149b3565b614e5d60608301856149b3565b614e6a60808301846149b3565b95945050505050565b6000604082019050614e8860008301856149b3565b614e9560208301846149b3565b9392505050565b600060a082019050614eb160008301886149b3565b614ebe60208301876149b3565b614ecb6040830186613f77565b614ed86060830185613f77565b614ee560808301846149b3565b9695505050505050565b600061010082019050614f05600083018b6149b3565b614f12602083018a6149b3565b8181036040830152614f24818961429b565b90508181036060830152614f38818861429b565b9050614f476080830187613f77565b614f5460a08301866149b3565b614f6160c0830185614253565b614f6e60e0830184613f77565b9998505050505050505050565b6000604051905081810181811067ffffffffffffffff82111715614fa257614fa16152ce565b5b8060405250919050565b600067ffffffffffffffff821115614fc757614fc66152ce565b5b601f19601f8301169050602081019050919050565b6000819050602082019050919050565b6000819050602082019050919050565b6000819050602082019050919050565b6000819050602082019050919050565b6000819050602082019050919050565b600081519050919050565b600081519050919050565b600081519050919050565b600081519050919050565b600081519050919050565b600081519050919050565b6000602082019050919050565b6000602082019050919050565b6000602082019050919050565b6000602082019050919050565b6000602082019050919050565b600082825260208201905092915050565b600082825260208201905092915050565b600082825260208201905092915050565b600082825260208201905092915050565b600082825260208201905092915050565b600082825260208201905092915050565b600082825260208201905092915050565b600082825260208201905092915050565b6000615142826151a9565b915061514d836151a9565b9250828210156151605761515f615270565b5b828203905092915050565b600061517682615189565b9050919050565b60008115159050919050565b600073ffffffffffffffffffffffffffffffffffffffff82169050919050565b6000819050919050565b82818337600083830152505050565b60005b838110156151e05780820151818401526020810190506151c5565b838111156151ef576000848401525b50505050565b6000600282049050600182168061520d57607f821691505b602082108114156152215761522061529f565b5b50919050565b6000615232826151a9565b91507fffffffffffffffffffffffffffffffffffffffffffffffffffffffffffffffff82141561526557615264615270565b5b600182019050919050565b7f4e487b7100000000000000000000000000000000000000000000000000000000600052601160045260246000fd5b7f4e487b7100000000000000000000000000000000000000000000000000000000600052602260045260246000fd5b7f4e487b7100000000000000000000000000000000000000000000000000000000600052604160045260246000fd5b6000601f19601f8301169050919050565b6153178161516b565b811461532257600080fd5b50565b61532e816151a9565b811461533957600080fd5b5056fea26469706673582212200aeef038be5fb0a29f873dad9f5c735a5b5efea9789e131921f2b8cb77e7b98964736f6c63430008000033",
  "immutableReferences": {},
  "source": "// SPDX-License-Identifier: MIT\npragma solidity ^0.8.0;\n\ncontract MedicalSupplyChain {\n    address public owner;\n\n    struct Manufacturer {\n        uint id;\n        string name;\n        address manufacturerAddress;\n    }\n\n    struct Buyer {\n        uint id;\n        string name;\n        address buyerAddress;\n    }\n\n \n\n    struct Seller {\n        uint id;\n        string name;\n        address sellerAddress;\n    }\n\n    struct Product {\n        uint id;\n        string name;\n        uint manufactureDate;\n        uint expiryDate;\n        address manufacturerAddress;\n        uint price;\n        bool forSale;\n        address buyer;\n    }\n\n    struct StatusUpdate {\n        string location;\n        uint temperature;\n        uint humidity;\n        uint timestamp;\n    }\n\n  struct Shipment {\n    uint id;\n    uint productId;\n    string productName;  \n    string manufacturerUsername;  \n    address sender;\n    uint shipmentDate;\n    bool received;\n    StatusUpdate[] statusUpdates;\n    address buyer;\n}\n\n\n    uint public manufacturerCount;\n    uint public productCount;\n    uint public shipmentCount;\n    uint public buyerCount;\n    uint public sellerCount;\n\n    mapping(uint => Manufacturer) public manufacturers;\n    mapping(uint => Buyer) public buyers;\n    mapping(uint => Seller) public sellers;\n    mapping(uint => Product) public products;\n    mapping(uint => Shipment) public shipments;\n    mapping(address => string) public manufacturerUsernames;\n    mapping(address => string) public buyerUsernames;\n\n    mapping(address => bool) public registeredManufacturers;\n    mapping(address => bool) public registeredBuyers;\n\n    event ManufacturerRegistered(uint id, string name, address manufacturerAddress);\n    event BuyerRegistered(uint id, string name, address buyerAddress);\n    event SellerRegistered(uint id, string name, address sellerAddress);\n    event ProductCreated(uint id, string name, uint manufactureDate, uint expiryDate, address manufacturerAddress);\n    event ProductListedForSale(uint id, uint price);\n    event ProductPurchased(uint id, address buyer);\n    event ShipmentCreated(uint id, uint productId, address sender, address buyer, uint shipmentDate);\n    event ShipmentReceived(uint id, uint receiveDate);\n    event ShipmentStatusUpdated(uint shipmentId, string location, uint temperature, uint humidity, uint timestamp);\n\n    modifier onlyOwner() {\n        require(msg.sender == owner, \"Only owner can perform this action\");\n        _;\n    }\n\n    constructor() {\n        owner = msg.sender;\n    }\n\n    function registerManufacturer(address _manufacturerAddress, string memory _username) public onlyOwner {\n        require(!registeredManufacturers[_manufacturerAddress], \"Manufacturer already registered\");\n        registeredManufacturers[_manufacturerAddress] = true;\n        manufacturerCount++;\n        manufacturers[manufacturerCount] = Manufacturer(manufacturerCount, \"\", _manufacturerAddress); // Assuming the name is not required here\n        manufacturerUsernames[_manufacturerAddress] = _username;\n        emit ManufacturerRegistered(manufacturerCount, \"\", _manufacturerAddress);\n    }\n\n    function registerBuyer(address _buyerAddress, string memory _username) public onlyOwner {\n        require(!registeredBuyers[_buyerAddress], \"Buyer already registered\");\n        registeredBuyers[_buyerAddress] = true;\n        buyerCount++;\n        buyers[buyerCount] = Buyer(buyerCount, \"\", _buyerAddress); // Assuming the name is not required here\n        buyerUsernames[_buyerAddress] = _username;\n        emit BuyerRegistered(buyerCount, \"\", _buyerAddress);\n    }\n\n\n    function registerSeller(string memory _name, address _sellerAddress) public onlyOwner {\n        sellerCount++;\n        sellers[sellerCount] = Seller(sellerCount, _name, _sellerAddress);\n        emit SellerRegistered(sellerCount, _name, _sellerAddress);\n    }\n\n    function createProduct(string memory _name, uint _manufactureDate, uint _expiryDate, uint _price) public {\n        require(isManufacturer(msg.sender) || isSeller(msg.sender), \"Only registered manufacturers or sellers can create products\");\n        productCount++;\n        products[productCount] = Product(productCount, _name, _manufactureDate, _expiryDate, msg.sender, _price, false, address(0));\n        emit ProductCreated(productCount, _name, _manufactureDate, _expiryDate, msg.sender);\n    }\n\n    function listProductForSale(uint _productId, uint _price) public {\n        Product storage product = products[_productId];\n        require(product.manufacturerAddress == msg.sender || isSeller(msg.sender), \"Only the product manufacturer or seller can list the product for sale\");\n        product.price = _price;\n        product.forSale = true;\n        emit ProductListedForSale(_productId, _price);\n    }\n\n    function purchaseProduct(uint _productId) public payable {\n        Product storage product = products[_productId];\n        require(product.forSale, \"Product is not for sale\");\n        require(msg.value == product.price, \"Incorrect value sent\");\n        product.forSale = false;\n        product.buyer = msg.sender;\n        payable(product.manufacturerAddress).transfer(msg.value);\n        emit ProductPurchased(_productId, msg.sender);\n    }\n\n    function createShipment(uint _productId, address _buyer, string memory _initialLocation, uint _initialTemperature, uint _initialHumidity) public {\n        require(products[_productId].manufacturerAddress == msg.sender || isSeller(msg.sender), \"Only the product manufacturer or seller can create a shipment\");\n        shipmentCount++;\n        Shipment storage newShipment = shipments[shipmentCount];\n        newShipment.id = shipmentCount;\n        newShipment.productId = _productId;\n        newShipment.sender = msg.sender;\n        newShipment.buyer = _buyer;\n        newShipment.shipmentDate = block.timestamp;\n        newShipment.received = false;\n        newShipment.statusUpdates.push(StatusUpdate(_initialLocation, _initialTemperature, _initialHumidity, block.timestamp));\n        emit ShipmentCreated(shipmentCount, _productId, msg.sender, _buyer, block.timestamp);\n        emit ShipmentStatusUpdated(shipmentCount, _initialLocation, _initialTemperature, _initialHumidity, block.timestamp);\n    }\n\n    function getManufacturerUsername(address _manufacturerAddress) public view returns (string memory) {\n         return manufacturerUsernames[_manufacturerAddress];\n}\n\n    function getBuyerUsername(address _buyerAddress) public view returns (string memory) {\n        return buyerUsernames[_buyerAddress];\n    }\n\n    function updateShipmentStatus(uint _shipmentId, string memory _location, uint _temperature, uint _humidity) public {\n        Shipment storage shipment = shipments[_shipmentId];\n        require(shipment.sender == msg.sender || shipment.buyer == msg.sender, \"Only sender or buyer can update shipment status\");\n        shipment.statusUpdates.push(StatusUpdate(_location, _temperature, _humidity, block.timestamp));\n        emit ShipmentStatusUpdated(_shipmentId, _location, _temperature, _humidity, block.timestamp);\n}\n\n    function receiveShipment(uint _shipmentId) public {\n        require(shipments[_shipmentId].buyer == msg.sender, \"Only the designated buyer can receive the shipment\");\n         shipments[_shipmentId].received = true;\n        emit ShipmentReceived(_shipmentId, block.timestamp);\n}\n\n\n    function logEnvironmentalData(uint _shipmentId, uint _temperature, uint _humidity) public {\n        Shipment storage shipment = shipments[_shipmentId];\n        require(shipment.sender == msg.sender || shipment.buyer == msg.sender, \"Only sender or buyer can log environmental data\");\n        shipment.statusUpdates.push(StatusUpdate(\"In transit\", _temperature, _humidity, block.timestamp));\n        emit ShipmentStatusUpdated(_shipmentId, \"In transit\", _temperature, _humidity, block.timestamp);\n}\n\n\n   function getShipmentsByBuyer(address _buyerAddress) public view returns (Shipment[] memory) {\n    uint count = 0;\n    for (uint i = 1; i <= shipmentCount; i++) {\n        if (shipments[i].buyer == _buyerAddress) {\n            count++;\n        }\n    }\n    Shipment[] memory buyerShipments = new Shipment[](count);\n    uint index = 0;\n    for (uint i = 1; i <= shipmentCount; i++) {\n        if (shipments[i].buyer == _buyerAddress) {\n            Shipment storage shipment = shipments[i];\n            Product storage product = products[shipment.productId];\n            buyerShipments[index] = Shipment({\n                id: shipment.id,\n                productId: shipment.productId,\n                productName: product.name,\n                manufacturerUsername: manufacturerUsernames[product.manufacturerAddress],\n                sender: shipment.sender,\n                shipmentDate: shipment.shipmentDate,\n                received: shipment.received,\n                statusUpdates: shipment.statusUpdates,\n                buyer: shipment.buyer\n            });\n            index++;\n        }\n    }\n    return buyerShipments;\n}\n\n\n    function isManufacturer(address _address) public view returns (bool) {\n        for (uint i = 1; i <= manufacturerCount; i++) {\n            if (manufacturers[i].manufacturerAddress == _address) {\n                return true;\n            }\n        }\n        return false;\n    }\n\n    function isBuyer(address _address) public view returns (bool) {\n        for (uint i = 1; i <= buyerCount; i++) {\n            if (buyers[i].buyerAddress == _address) {\n                return true;\n            }\n        }\n        return false;\n    }\n\n    function isSeller(address _address) public view returns (bool) {\n        for (uint i = 1; i <= sellerCount; i++) {\n            if (sellers[i].sellerAddress == _address) {\n                return true;\n            }\n        }\n        return false;\n    }\n\n    function getShipmentStatusUpdates(uint _shipmentId) public view returns (StatusUpdate[] memory) {\n        return shipments[_shipmentId].statusUpdates;\n    }\n\n    // Function to get all sellers\n    function getAllSellers() public view returns (Seller[] memory) {\n        Seller[] memory allSellers = new Seller[](sellerCount);\n        for (uint i = 1; i <= sellerCount; i++) {\n            allSellers[i - 1] = sellers[i];\n        }\n        return allSellers;\n    }\n\n    // Function to get all buyers\n    function getAllBuyers() public view returns (Buyer[] memory) {\n        Buyer[] memory allBuyers = new Buyer[](buyerCount);\n        for (uint i = 1; i <= buyerCount; i++) {\n            allBuyers[i - 1] = buyers[i];\n        }\n        return allBuyers;\n    }\n\n    // Function to get all products\n    function getAllProducts() public view returns (Product[] memory) {\n        Product[] memory allProducts = new Product[](productCount);\n        for (uint i = 1; i <= productCount; i++) {\n            allProducts[i - 1] = products[i];\n        }\n        return allProducts;\n    }\n\n    // Function to get all shipments\n    function getAllShipments() public view returns (Shipment[] memory) {\n        Shipment[] memory allShipments = new Shipment[](shipmentCount);\n        for (uint i = 1; i <= shipmentCount; i++) {\n            allShipments[i - 1] = shipments[i];\n        }\n        return allShipments;\n    }\n}",
  "sourcePath": "C:\\Users\\janag\\Desktop\\BLockChain_project\\truffle\\contracts\\MedicalSupplyChain.sol",
  "compiler": {
    "name": "solc",
    "version": "0.8.0+commit.c7dfd78e.Emscripten.clang"
  },
  "schemaVersion": "3.4.16",
  "updatedAt": "2024-05-25T12:59:40.368Z",
  "networkType": "ethereum",
  "devdoc": {
    "kind": "dev",
    "methods": {},
    "version": 1
  },
  "userdoc": {
    "kind": "user",
    "methods": {},
    "version": 1
  }
}